:0400000058EF17F0AE
:1010000000010000000A00000064000000E8030086
:101010000010270000A086010040420F0080969833
:101020000000E1F50500CA9A3B00803F0020410026
:10103000C842007A44401C4650C34724744997185C
:101040004BBCBE4C6B6E4E03155079AD60F34971CD
:1010500000803FCDCC3DD7233C12833AB7D138C670
:101060002737388635C0D633CC2B32708930E7DB52
:101070002EE53C1E42A20D41444328574954484F97
:101080005554204C49422900444953504C41592061
:10109000564F4C5441474500564F4C544147453DEF
:0D10A0000025302E3566002020005600008F
:1010AE00440E506E000E516ED7EF0CF0250E6518E3
:1010BE00D8B408D040C0D9FF41C0DAFF65C0DFFF09
:1010CE00D5EF0CF0000E5F6E000E5E6E000E5D6EC4
:1010DE00000E5C6E03D05C84424A432A42C0F6FF87
:1010EE0043C0F7FF0800F550300AD8B4F4D742C019
:1010FE00F6FF43C0F7FF0800F55068EC17F0D8A0D4
:10110E0032D0000E5F6E000E5E6E5EC00FF05FC0DE
:10111E0010F0000E126E0A0E116E33EC17F00FC0A7
:10112E005EF010C05FF0D00E476EFF0E486E42C0EC
:10113E00F6FF43C0F7FF0800F550496E4A6A475064
:10114E00492648504A2249505E264A505F22424A5A
:10115E00432A42C0F6FF43C0F7FF0800F55068EC83
:10116E0017F0D8B0D2D742C0F6FF43C0F7FF080041
:10117E00F5502E0AD8A42ED05D8C424A432A000E7A
:10118E00646E000E636E1BD063C00FF064C010F06F
:10119E00000E126E0A0E116E33EC17F042C0F6FFFF
:1011AE0043C0F7FF0800F5500F26000E1022D00E98
:1011BE000F24636EFF0E1020646E424A432A42C013
:1011CE00F6FF43C0F7FF0800F55068EC17F0D8A003
:1011DE0009D0DAD7000E646E000E636E5D8802D001
:1011EE005D8411D042C0F6FF43C0F7FF424A432A46
:1011FE000800F5CF65F06550000AD8B4DED3660A54
:10120E00D8B4EED7CDD3070E5D14D8B41AD35DA8DB
:10121E0004D0000E646E060E636E50C0D9FF51C02E
:10122E00DAFFDECF60F0DECF61F0DDCF62F0030ECD
:10123E005026000E512262AE10D060C001F061C087
:10124E0002F062C003F046EC17F001C060F002C07D
:10125E0061F003C062F0030E5C12000E5B6E000EB6
:10126E005A6E605061106210D8B483D0820E476EF1
:10127E00FF0E486E60C049F061C04AF062C04BF08C
:10128E0063C04CF0100E05D0D8904C324B324A321F
:10129E004932E82EF9D7495047245A6E000E48209D
:1012AE005B6E5A06D8A05B065AC00FF05BC010F0FA
:1012BE00000E126E030E116E33EC17F00FC05AF0C3
:1012CE0010C05BF05AC007F05BC008F0000E0A6E4B
:1012DE000A0E096E01EC15F007C05AF008C05BF05B
:1012EE005BAE03D05A06D8A05B065A500008EBEC52
:1012FE000CF024C056F025C057F026C058F056C04A
:10130E0015F057C016F058C017F060C018F061C045
:10131E0019F062C01AF0A9EC12F015C056F016C002
:10132E0057F017C058F056C001F057C002F058C021
:10133E0003F0000E046E800E056E3F0E066EB9ECC5
:10134E0014F0D8B004D05A06D8A05B0612D056C0FE
:10135E0001F057C002F058C003F0000E046E200ECC
:10136E00056E410E066EB9EC14F0D8A002D05A4AA2
:10137E005B2A64BE06D064501BE10D0E635CD8B0D0
:10138E0017D060C02EF061C02FF062C030F06350F5
:10139E00E3EC0EF024C031F025C032F026C033F05D
:1013AE0006EC10F02EC060F02FC061F030C062F07D
:1013BE005BBE06D05B501EE10A0E5A5CD8B01AD046
:1013CE00605061106210D8B451D060C02BF061C073
:1013DE002CF062C02DF023EC13F02B502C102D109E
:1013EE002E10D8B45BBE42D05B5004E1020E5A5CA4
:1013FE00D8A03CD056C001F057C002F058C003F040
:10140E00700E046E890E056E400E066EB9EC14F069
:10141E00D8B002D0F70E01D0F80E5A26FF0E5B227E
:10142E005A50EBEC0CF024C056F025C057F026C0F5
:10143E0058F060C001F061C002F062C003F056C007
:10144E0004F057C005F058C006F07CEC11F001C056
:10145E0052F002C053F003C054F004C055F0000E19
:10146E00606E000E616E000E626E32D060C02BF0A8
:10147E0061C02CF062C02DF023EC13F02BC052F0A3
:10148E002CC053F02DC054F02EC055F060C03AF071
:10149E0061C03BF062C03CF052C009F053C00AF08C
:1014AE0054C00BF055C00CF01FEC16F009C03DF007
:1014BE000AC03EF00BC03FF09CEC16F03AC060F054
:1014CE003BC061F03CC062F0000E5B6E000E5A6EC7
:1014DE00010E656E0A0E6518D8B418D06550040D4D
:1014EE00010EF324F66E100EF420F76E0900F5507F
:1014FE00525C0900F55053580900F5505458090034
:10150E00F5505558D8A002D0652AE4D765C047F0EB
:10151E00486A47BE480663504726645048225A50D0
:10152E0047265B50482247505E5E48505F5A6350D4
:10153E006410D8B403D05E06D8A05F06030E5C1408
:10154E00476E000E5D14486E47504810D8B403D055
:10155E005E06D8A05F065CA431D0030E5C14476E05
:10156E00000E5D14486E47504810D8B414D040C0D9
:10157E00D9FF41C0DAFF2D0EDF6E404A412A0BD053
:10158E0040C0D9FF41C0DAFF300EDF6E404A412A1B
:10159E005E06D8A05F065FBE73D05F50F1E15E04B9
:1015AE00D8A06ED0EDD740C0D9FF41C0DAFF200ED3
:1015BE00DF6E404A412A5E06D8A05F065FBE05D0A8
:1015CE005F50F1E15E04D8B0EED7030E5C14476EA7
:1015DE00000E5D14486E47504810D8B451D040C02C
:1015EE00D9FF41C0DAFF2D0E49D0404A412A48D0DA
:1015FE0052C001F053C002F054C003F055C004F0C5
:10160E006550040D010EF324F66E100EF420F76EE5
:10161E000900F5CF05F00900F5CF06F00900F5CF6A
:10162E0007F00A00F5CF08F043EC15F001C056F0B4
:10163E0002C057F003C058F004C059F056C001F074
:10164E0057C002F058C003F059C004F00A0E056EE0
:10165E00000E066E000E076E000E086EBCEC15F046
:10166E0001C056F002C057F003C058F004C059F044
:10167E005650300F40C0D9FF41C0DAFFDF6EB5D7EC
:10168E0065066528D8B40CD0B3D740C0D9FF41C089
:10169E00DAFF300EDF6E404A412A5A06D8A05B06AA
:1016AE005BBE05D05B50F1E15A04D8B0EED764BEF4
:1016BE0009D0645004E1090E635CD8A003D0080E73
:1016CE00656E02D063C065F06550635E000E65BE48
:1016DE00FF0E645A6550D8B408D040C0D9FF41C03F
:1016EE00DAFF2E0EDF6E404A412A6550EBEC0CF00D
:1016FE0024C04DF025C04EF026C04FF060C018F04B
:10170E0061C019F062C01AF04DC015F04EC016F04F
:10171E004FC017F0A9EC12F015C02BF016C02CF02C
:10172E0017C02DF023EC13F02BC052F02CC053F049
:10173E002DC054F02EC055F06FD052C001F053C0E2
:10174E0002F054C003F055C004F06550040D010EB4
:10175E00F324F66E100EF420F76E0900F5CF05F0A7
:10176E000900F5CF06F00900F5CF07F00A00F5CF16
:10177E0008F043EC15F001C056F002C057F003C05C
:10178E0058F004C059F056C001F057C002F058C0CE
:10179E0003F059C004F00A0E056E000E066E000E20
:1017AE00076E000E086EBCEC15F001C056F002C0BC
:1017BE0057F003C058F004C059F05650300F40C0D7
:1017CE00D9FF41C0DAFFDF6E404A412A52C001F014
:1017DE0053C002F054C003F055C004F06550040D20
:1017EE00010EF324F66E100EF420F76E0900F5CFFD
:1017FE0005F00900F5CF06F00900F5CF07F00A0055
:10180E00F5CF08F0BCEC15F001C052F002C053F059
:10181E0003C054F004C055F065066528D8B40CD04A
:10182E008CD740C0D9FF41C0DAFF300EDF6E404A80
:10183E00412A6306D8A0640663506410D8B4B0D0B1
:10184E00F0D763506410D8A408D0525053105410DF
:10185E005510D8A402D0634A642A800E65BE7F0E4E
:10186E00476E6350655C6450800A4758D8B003D009
:10187E0063C065F010D06450800A476E6550635C9B
:10188E00800E65BE7F0E4758D8B005D06550636E8A
:10189E00646A63BE64065E505F10D8B40DD0030E4A
:1018AE005C14476E000E5D14486E47504810D8B455
:1018BE0003D05E06D8A05F065DAC13D05E50635CAD
:1018CE006450800A476E5F50800A4758D8B005D0E2
:1018DE0063505E5E64505F5A04D0000E5F6E000E61
:1018EE005E6E800E65BE7F0E476E5E50655C5F500D
:1018FE00800A4758D8B007D065505E5E000E65BEB0
:10190E00FF0E5F5A04D0000E5F6E000E5E6E5CA47A
:10191E0022D0030E5C14476E000E5D14486E4750C5
:10192E004810D8B408D040C0D9FF41C0DAFF2D0E00
:10193E00DF6E404A412A5E505F10D8B431D040C0AD
:10194E00D9FF41C0DAFF300EDF6E404A412A5E06F3
:10195E00D8A05F06F0D75E505F10D8B40FD040C04D
:10196E00D9FF41C0DAFF200EDF6E404A412A5E06E3
:10197E00D8A05F065E505F10D8A4F1D7030E5C149A
:10198E00476E000E5D14486E47504810D8B408D00C
:10199E0040C0D9FF41C0DAFF2D0EDF6E404A412A0A
:1019AE0042C0F6FF43C0F7FF424A432A0800F5CF74
:1019BE0065F06550D8A45DEF08F040C0D9FF41C076
:1019CE00DAFF000EDF6E12002A6E2AAEFBD02A6CF2
:1019DE002A50800A120FD8A091D0000E126E030E5C
:1019EE00116E000E0A6E0A0E096E000E046E640E63
:1019FE00036E2A50016E026A01BE020684EC15F0D7
:101A0E0001C007F002C008F001EC15F0090E072422
:101A1E000F6E000E0820106E33EC17F0500E0F24D0
:101A2E00F66E100E1020F76E0900F5CF18F00900B3
:101A3E00F5CF19F00A00F5CF1AF0000E0A6E640EFB
:101A4E00096E2A50076E086A07BE080601EC15F0EB
:101A5E00120E07240F6E000E0820106E000E126E6E
:101A6E00030E116E33EC17F0500E0F24F66E100E9F
:101A7E001020F76E0900F5CF15F00900F5CF16F01E
:101A8E000A00F5CF17F0A9EC12F015C027F016C01A
:101A9E0028F017C029F027C015F028C016F029C06D
:101AAE0017F0000E126E030E116E000E046E0A0E6B
:101ABE00036E2A50016E026A01BE020684EC15F016
:101ACE0001C00FF002C010F033EC17F0500E0F24CF
:101ADE00F66E100E1020F76E0900F5CF18F0090003
:101AEE00F5CF19F00A00F5CF1AF0A9EC12F015C0D7
:101AFE0024F016C025F017C026F012002A50800AD6
:101B0E00750FD8A04DD0000E0A6E0A0E096E2A501F
:101B1E00076E086A07BE080601EC15F0090E0724C9
:101B2E000F6E000E0820106E000E126E030E116E58
:101B3E0033EC17F0500E0F24F66E100E1020F76EC9
:101B4E000900F5CF15F00900F5CF16F00A00F5CF14
:101B5E0017F0000E126E030E116E000E046E0A0EBA
:101B6E00036E2A50016E026A01BE020684EC15F065
:101B7E0001C00FF002C010F033EC17F0500E0F241E
:101B8E00F66E100E1020F76E0900F5CF18F0090052
:101B9E00F5CF19F00A00F5CF1AF0A9EC12F0A7D77D
:101BAE002A50030D500EF324F66E100EF420F76E2D
:101BBE000900F5CF24F00900F5CF25F00A00F5CF86
:101BCE0026F012002A50800A120FD8A091D0000ED3
:101BDE00126E030E116E000E0A6E0A0E096E000EC4
:101BEE00046E640E036E2A50016E026A01BE020676
:101BFE0084EC15F001C007F002C008F001EC15F0FE
:101C0E00090E07240F6E000E0820106E33EC17F02D
:101C1E00290E0F24F66E100E1020F76E0900F5CF68
:101C2E0018F00900F5CF19F00A00F5CF1AF0000EE2
:101C3E000A6E640E096E2A50076E086A07BE080601
:101C4E0001EC15F0120E07240F6E000E0820106E18
:101C5E00000E126E030E116E33EC17F0290E0F24C8
:101C6E00F66E100E1020F76E0900F5CF15F0090074
:101C7E00F5CF16F00A00F5CF17F0A9EC12F015C04B
:101C8E0027F016C028F017C029F027C015F028C07D
:101C9E0016F029C017F0000E126E030E116E000E14
:101CAE00046E0A0E036E2A50016E026A01BE02060F
:101CBE0084EC15F001C00FF002C010F033EC17F0F9
:101CCE00290E0F24F66E100E1020F76E0900F5CFB8
:101CDE0018F00900F5CF19F00A00F5CF1AF0A9ECAB
:101CEE0012F015C024F016C025F017C026F0120011
:101CFE002A50800A750FD8A04DD0000E0A6E0A0E1B
:101D0E00096E2A50076E086A07BE080601EC15F028
:101D1E00090E07240F6E000E0820106E000E126EB4
:101D2E00030E116E33EC17F0290E0F24F66E100E03
:101D3E001020F76E0900F5CF15F00900F5CF16F05B
:101D4E000A00F5CF17F0000E126E030E116E000E84
:101D5E00046E0A0E036E2A50016E026A01BE02065E
:101D6E0084EC15F001C00FF002C010F033EC17F048
:101D7E00290E0F24F66E100E1020F76E0900F5CF07
:101D8E0018F00900F5CF19F00A00F5CF1AF0A9ECFA
:101D9E0012F0A7D72A50030D290EF324F66E100E5B
:101DAE00F420F76E0900F5CF24F00900F5CF25F0E9
:101DBE000A00F5CF26F012002D6E6D0E2D649FD009
:101DCE00000E126E030E116E000E0A6E0A0E096ED2
:101DDE00000E046E640E036E2DC001F0026A84ECD8
:101DEE0015F001C007F002C008F001EC15F0090E65
:101DFE0007240F6E000E0820106E33EC17F0500EF5
:101E0E000F24F66E100E1020F76E0900F5CF18F0A5
:101E1E000900F5CF19F00A00F5CF1AF0000E0A6E80
:101E2E00640E096E2DC007F0086A01EC15F0120E53
:101E3E0007240F6E000E0820106E000E126E030E99
:101E4E00116E33EC17F0500E0F24F66E100E10209C
:101E5E00F76E0900F5CF15F00900F5CF16F00A0060
:101E6E00F5CF17F0A9EC12F015C02AF016C02BF022
:101E7E0017C02CF0000E126E030E116E000E046EC3
:101E8E000A0E036E2DC001F0026A84EC15F001C03B
:101E9E000FF002C010F033EC17F0500E0F24F66E58
:101EAE00100E1020F76E0900F5CF18F00900F5CFCF
:101EBE0019F00A00F5CF1AF02AC015F02BC016F053
:101ECE002CC017F0A9EC12F015C027F016C028F0A0
:101EDE0017C029F027C015F028C016F029C017F03A
:101EEE00000E186E000E196E3F0E1A6EA9EC12F04F
:101EFE0015C024F016C025F017C026F012000A0EE9
:101F0E002D645DD0000E126E030E116E000E046E67
:101F1E000A0E036E2DC001F0026A84EC15F001C0AA
:101F2E000FF002C010F033EC17F0500E0F24F66EC7
:101F3E00100E1020F76E0900F5CF18F00900F5CF3E
:101F4E0019F00A00F5CF1AF0000E0A6E0A0E096E8D
:101F5E002DC007F0086A01EC15F0090E07240F6E6C
:101F6E00000E0820106E000E126E030E116E33EC72
:101F7E0017F0500E0F24F66E100E1020F76E09009B
:101F8E00F5CF15F00900F5CF16F00A00F5CF17F0D2
:101F9E00A9EC12F015C02AF016C02BF017C02CF0C9
:101FAE002AC015F02BC016F02CC017F0000E186EBC
:101FBE00000E196E3F0E1A6EA9EC12F099D72D5025
:101FCE00030D500EF324F66E100EF420F76E09007A
:101FDE00F5CF15F00900F5CF16F00A00F5CF17F082
:101FEE00000E186E000E196E3F0E1A6EA9EC12F04E
:101FFE0015C024F016C025F017C026F0120030C010
:10200E0034F0356A366A2F34343601E33580345075
:10201E00396E33C034F0356A366A3234343601E301
:10202E0035803450386E3950D8B40BD03850395CB6
:10203E00D8B00ED0395000083824346E180E3464DF
:10204E0007D031C02EF032C02FF033C030F0120066
:10205E003850D8B40BD03950385CD8B00ED0385078
:10206E0000083924346E180E346407D02EC02EF0BA
:10207E002FC02FF030C030F01200060E376E30BE7B
:10208E00378E33BE378C2F8EFF0E2E16FF0E2F1669
:10209E00000E3016328EFF0E3116FF0E3216000E67
:1020AE0033163850395CD8B01BD0D8903136323612
:1020BE003336380639503818D8B40DD0370637C0F5
:1020CE0034F0070E3416D8B406D0EFD7D89030328D
:1020DE002F322E32392A38503918D8B41FD0F6D7AD
:1020EE003950385CD8B01AD0D8902E362F363036BC
:1020FE00390639503818D8B40DD0370637C034F0F9
:10210E00070E3416D8B406D0EFD7D8903332323209
:10211E003132382A38503918D8A4F7D737AE0CD008
:10212E00FF0E2E1AFF0E2F1AFF0E301A010E2E263C
:10213E00000E2F22000E302237AC0CD0FF0E311ABB
:10214E00FF0E321AFF0E331A010E3126000E322206
:10215E00000E3322000E376E2E5031262F503222B3
:10216E003050332233AE0ED0FF0E311AFF0E321A1C
:10217E00FF0E331A010E3126000E3222000E3322CC
:10218E00010E376E31C001F032C002F033C003F0E1
:10219E0039C004F037C005F010EC14F001C02EF079
:1021AE0002C02FF003C030F01200770ED36E92688B
:1021BE00490EC26EC20EC16E77EC17F0FAEC16F035
:1021CE000009D8A4FBD7770E036E100E046EEFEC49
:1021DE0015F0400E4DEC16F0880E036E100E046EC8
:1021EE00EFEC15F00C0EDBEC16F0000E696E000E27
:1021FE00686E69BE06D0695013E1150E685CD8B0E2
:10220E000FD0020E676E040E666EBA0EE82EFED763
:10221E00662EFCD7672EFAD700D0684A692AE9D70E
:10222E00010EDBEC16F0000E6E6E000E6D6E000EE3
:10223E00026E010E016E76EC16F001C06DF002C05A
:10224E006EF0000E186EA00E196E400E1A6E6DC056
:10225E0009F06EC00AF017EC17F009C015F00AC0AD
:10226E0016F00BC017F0A9EC12F015C024F016C032
:10227E0025F017C026F0C00E276E7F0E286E440E76
:10228E00296E9DEC13F024C06AF025C06BF026C0B9
:10229E006CF0000E4DEC16F0980E036E100E046EE0
:1022AE00EFEC15F0800E406E000E416EA10E426EE8
:1022BE00100E436E6AC044F06BC045F06CC046F021
:1022CE0057EC08F0800E036E000E046EEFEC15F066
:1022DE00AA0E036E100E046EEFEC15F0A70E036E31
:1022EE00100E046EEFEC15F09ED703C007F0086ACF
:1022FE00096A0234073601E3088007500F6E0F504B
:10230E00D8A409D0000E016E000E026E000E036EF0
:10231E00000E046E120006C007F0086A096A053442
:10232E00073601E3088007500E6E0E50D8A409D070
:10233E00000E016E000E026E000E036E000E046E95
:10234E001200028EFF0E0116FF0E0216000E03166D
:10235E00058EFF0E0416FF0E0516000E0616000E55
:10236E000A6E000E0B6E000E0C6E000E0D6E7F0EC2
:10237E000F5E0E50980F0F5E180E0E6ED8900A3626
:10238E000B360C360D360450015C055002580650C3
:10239E000358D8A007D00450015E0550025A0650CB
:1023AE00035A0A80D8900136023603360E2EE6D72F
:1023BE000FAE16D00F50800A970FD8B009D0000E6E
:1023CE00016E000E026E000E036E000E046E120001
:1023DE00D8900D320C320B320A320F3EF9D715D08F
:1023EE00170E0F640FD0000E016E000E026E000E5F
:1023FE00036E000E046E1200D8900A360B360C36A1
:10240E000D360F060F50D8A4F7D70AC001F00BC037
:10241E0002F00CC003F00DC004F0120003340434BB
:10242E000C6E0C50D8A409D0000E016E000E026E78
:10243E00000E036E000E046E1200063407340B6E8F
:10244E000B50D8A409D0000E016E000E026E000EC5
:10245E00036E000E046E1200038EFF0E0116FF0EA9
:10246E000216FF0E0316000E0416068EFF0E04163D
:10247E00FF0E0516FF0E0616000E0716000E076E4F
:10248E00000E086E000E096E000E0A6E7F0E0C5EB8
:10249E000B50A00F0C5E200E0B6ED8900736083630
:1024AE0009360A360450015C05500258065003588E
:1024BE0007500458D8A009D00450015E0550025AA6
:1024CE000650035A0750045A0780D8900136023638
:1024DE00033604360B2EE1D70CAE16D00C50800A04
:1024EE009F0FD8B009D0000E016E000E026E000EC6
:1024FE00036E000E046E1200D8900A3209320832B2
:10250E0007320C3EF9D715D01F0E0C640FD0000EFB
:10251E00016E000E026E000E036E000E046E1200AF
:10252E00D8900736083609360A360C060C50D8A451
:10253E00F7D707C001F008C002F009C003F00AC0C7
:10254E0004F0120017C01BF01C6A1D6A16341B36ED
:10255E0001E31C801B501E6E1E50D8A407D0000E27
:10256E00156E000E166E000E176E12001AC01BF0BE
:10257E001C6A1D6A19341B3601E31C801B50236E26
:10258E002350D8A407D0000E156E000E166E000E46
:10259E00176E120023507B0F1E2617C023F01A5001
:1025AE00231A800E2316168E198EFF0E1816FF0E86
:1025BE001916000E1A16000E1F6E000E206E000E5B
:1025CE00216E070E226E15A006D018501F26195028
:1025DE0020221A502122D890173216321532D89056
:1025EE00183619361A36222EEED7090E226E15A07F
:1025FE0006D018501F26195020221A502122D8908A
:10260E00173216321532D890213220321F32222E36
:10261E00EED71FC001F020C002F021C003F01EC093
:10262E0004F023C005F010EC14F001C015F002C048
:10263E0016F003C017F012002DC02FF0306A316A69
:10264E002C342F3601E330802F50396E3950D8A4F8
:10265E0009D0000E2B6E000E2C6E000E2D6E000E8D
:10266E002E6E1200170E2F6E2BC030F02CC031F0D4
:10267E002DC032F02F28336E04D0D8903232313242
:10268E003032332EFAD73050346E2C8EFF0E2B167E
:10269E00FF0E2C16000E2D162B50356E2C50366E4E
:1026AE002D50376E386A8E0E395E39AE16D03950CF
:1026BE00800A8F0FD8B009D0000E2B6E000E2C6E34
:1026CE00000E2D6E000E2E6E1200D890383237325C
:1026DE0036323532393EF9D715D0170E39640FD050
:1026EE00000E2B6E000E2C6E000E2D6E000E2E6E3A
:1026FE001200D890353636363736383639063950D8
:10270E00D8A4F7D73450D8B408D0381E371E361E8A
:10271E00356C000E36223722382235C02BF036C0EB
:10272E002CF037C02DF038C02EF0120026C02AF043
:10273E002B6A2C6A25342A3601E32B802A50316EFF
:10274E003150D8A407D0000E246E000E256E000E58
:10275E00266E120029C02AF02B6A2C6A28342A36DB
:10276E0001E32B802A50326E3250D8A407D0000ECF
:10277E00246E000E256E000E266E1200000E2E6EBA
:10278E00000E2F6E000E306E3250890F315E26C055
:10279E0032F02950321A800E3216258EFF0E241674
:1027AE00FF0E2516000E2616288EFF0E2716FF0E7C
:1027BE002816000E2916180E2D6ED8902E362F368E
:1027CE0030362750245C2850255829502658D8A03A
:1027DE0007D02750245E2850255A2950265A2E807D
:1027EE00D8902436253626362D2EE7D72EC001F06A
:1027FE002FC002F030C003F031C004F032C005F03B
:10280E0010EC14F001C024F002C025F003C026F035
:10281E0012000450D8B405D0015002100310D8A4F1
:10282E000CD0000E016E000E026E000E036E120032
:10283E00042AD890033202320132000E0114066EC1
:10284E00000E0214076EFE0E0314086E06500710DB
:10285E000810D8B40CD0ECD7042A010E0126000EB5
:10286E000222000E0322D890033202320132000EF1
:10287E000114066E000E0214076EFF0E0314086E8E
:10288E00065007100810D8B406D0E6D70406D89024
:10289E0001360236033602BE03D0020E0460F6D7AE
:1028AE0004A0029ED8900432045003120550D8A4FE
:1028BE00038E01C001F002C002F003C003F012004B
:1028CE00066EF00E8216F00E9416949C949A9498BE
:1028DE008B9C8B9A8B98A1EC17F0300EDBEC16F0DC
:1028EE00050E86EC17F0300EDBEC16F0010E86ECC2
:1028FE0017F0320EDBEC16F0FAEC16F00009D8A445
:10290E00FBD7FAEC16F00009D8A4FBD70650DBEC87
:10291E0016F0FAEC16F00009D8A4FBD7080EDBEC83
:10292E0016F0FAEC16F00009D8A4FBD70F0EDBEC6C
:10293E0016F0FAEC16F00009D8A4FBD7010EDBEC6A
:10294E0016F0FAEC16F00009D8A4FBD7040EDBEC57
:10295E0016F0FAEC16F00009D8A4FBD7800E4DEC59
:10296E0016F0120003AE16D001C007F002C008F038
:10297E0003C009F0071E081E091E072A000E0822B2
:10298E000922000E0724016E000E0820026E800E32
:10299E000920036E06AE16D004C007F005C008F07D
:1029AE0006C009F0071E081E091E072A000E08227F
:1029BE000922000E0724046E000E0820056E800EFC
:1029CE000920066E000E011A000E021A800E031A5E
:1029DE00000E041A000E051A800E061A0450015C31
:1029EE000550025806500358D8B002D0D8901200A5
:1029FE00D8801200000E0C6E0AAE06D0096C0A1EAC
:102A0E00D8B00A2A010E0C6E08AE06D0076C081E4E
:102A1E00D8B0082A010E0C1A000E0E6E000E0D6EA6
:102A2E0009500A10D8B41CD0010E0B6E04D0D890E9
:102A3E0009360A360B2A0AAEFAD7D8900D360E365C
:102A4E000950075C0A500858D8A005D00950075EF7
:102A5E000A50085A0D80D8900A3209320B2EEDD743
:102A6E000C50D8B404D00D6C0E1ED8B00E2A0DC06A
:102A7E0007F00EC008F01200000E096E000E0A6E6E
:102A8E00000E0B6E000E0C6E05500610071008108F
:102A9E00D8B42AD0010E0D6E06D0D8900536063663
:102AAE00073608360D2A08AEF8D7D89009360A36FA
:102ABE000B360C360550015C065002580750035871
:102ACE0008500458D8A009D00550015E0650025A8D
:102ADE000750035A0850045A0980D890083207321A
:102AEE00063205320D2EE1D709C001F00AC002F000
:102AFE000BC003F00CC004F01200000E066E02AE06
:102B0E0006D0016C021ED8B0022A010E066E04AE6B
:102B1E0004D0036C041ED8B0042A03500410D8B499
:102B2E0018D0010E056E04D0D89003360436052A4F
:102B3E0004AEFAD70350015C04500258D8A004D05A
:102B4E000350015E0450025AD89004320332052E0F
:102B5E00F1D70650D8B404D0016C021ED8B0022AA8
:102B6E0001C001F002C002F012000550061007105D
:102B7E000810D8B424D0010E096E06D0D8900536B0
:102B8E00063607360836092A08AEF8D70550015C16
:102B9E00065002580750035808500458D8A008D0C1
:102BAE000550015E0650025A0750035A0850045A47
:102BBE00D8900832073206320532092EE7D701C007
:102BCE0001F002C002F003C003F004C004F01200D2
:102BDE001AD0FAEC16F00009D8A4FBD703C0F6FF02
:102BEE0004C0F7FF000EF86E0F0EF76403D0080056
:102BFE00F55005D0F6CFE9FFF7CFEAFFEF50BCEC6A
:102C0E0016F0034A042A03C0F6FF04C0F7FF000EB5
:102C1E00F86E0F0EF76403D00800F55005D0F6CF0E
:102C2E00E9FFF7CFEAFFEF500009D8B41200D1D771
:102C3E008E0E116E06D0D8900C320B320A3209323B
:102C4E00112A000E09140D6E000E0A140E6E000EDF
:102C5E000B140F6EFF0E0C14106E0D500E100F1085
:102C6E001010D8A4E8D709C001F00AC002F00BC0BA
:102C7E0003F011C004F0000E056E10EC14F001C04C
:102C8E0009F002C00AF003C00BF01200056EF00E40
:102C9E009416F00E82160550026E036A028E040E12
:102CAE00046E033403320232042EFBD702500F0B94
:102CBE0082128B9C8B9AA5EC17F08B88A5EC17F0E3
:102CCE008B98F00E821605500F0B8212A5EC17F0A2
:102CDE008B88A5EC17F08B980F0E94121200C28001
:102CEE00C090C082C08401C003F003460346C250A8
:102CFE000318C30B0318C26EC08E030E036E980E1C
:102D0E00E82EFED7032EFCD7C282C2B2FED7C45025
:102D1E00046E036AC3500324056E000E0420066E73
:102D2E0005C001F006C002F012003D503E103F10EB
:102D3E00D8B406D0000E3D1A000E3E1A800E3F1A71
:102D4E003AC02EF03BC02FF03CC030F03DC031F009
:102D5E003EC032F03FC033F006EC10F02EC03AF019
:102D6E002FC03BF030C03CF01200026EF00E9416F5
:102D7E00F00E821602380F0B0F0B82128B8A8B9C71
:102D8E00A5EC17F08B88A5EC17F08B98F00E821639
:102D9E0002500F0B8212A5EC17F08B88A5EC17F0E2
:102DAE008B980F0E94121200026EF00E9416F00E07
:102DBE00821602380F0B0F0B82128B9C8B9AA5EC8E
:102DCE0017F08B88A5EC17F08B98F00E8216025038
:102DDE000F0B8212A5EC17F08B88A5EC17F08B98D1
:102DEE000F0E941212008B8C8B9AA5EC17F08B8819
:102DFE00A5EC17F082A60AD08B98A5EC17F08B885D
:102E0E00A5EC17F08B988B9C010E12008B98A5ECFD
:102E1E0017F08B88A5EC17F08B988B9C000E120088
:102E2E00000E0C6E0AAE06D0096C0A1ED8B00A2A25
:102E3E00010E0C6E09C001F00AC002F0036A8E0E7C
:102E4E00046E0CC005F010EC14F001C009F002C0C5
:102E5E000AF003C00BF012000F501102F3CF13F063
:102E6E00F4CF14F00F501202F3501426105011022A
:102E7E00F350142613C00FF014C010F012000150BE
:102E8E0002100310D8B406D0000E011A000E021A5A
:102E9E00800E031A01C001F002C002F003C003F05D
:102EAE00120000EE80F0140EEE6AE806FDE16E6A86
:102EBE006D6A6C6A6B6A6A6A000EF86E0001DCEF6E
:102ECE0010F0036E000E026E3A0E036005D02F0E48
:102EDE00036402D0010E026E02C001F00130120036
:102EEE00280E67EC14F0FAEC16F00009D8A4FBD704
:102EFE00060EDBEC16F00F0EDBEC16F01200026E77
:102F0E000D0E016EFC0EE82EFED7012EFCD7022E02
:102F1E00F7D71200016EC80E00D0E82EFDD7012E95
:102F2E00FAD71200016E030EE82EFED700F0012E26
:102F3E00FAD712001E0E91EC17F01200140E99EC37
:042F4E0017F0120066
:020000040020DA
:08000000FFFFFFFFFFFFFFFF00
:020000040030CA
:0E000000FF081F1EFF0185FF0FC00FE00F401D
:00000001FF
